:02000000CB280B
:1000060083120313071687121F30FB007130FC00A2
:100016001E30FD00FD0B0D28FC0B0D28FB0B0D28DB
:0C002600000007128715071007150800DE
:0A0032008312031387160714080059
:10003C0083120313850186182528192021280130E5
:10004C00B800061C5328861C3528061C3528380891
:10005C00013A031D342803200230B80029288618E1
:10006C005228061C52283808023A031D5128071141
:10007C0087141F30FB007130FC001E30FD00FD0B9F
:10008C004528FC0B4528FB0B4528000087108711E1
:10009C0019200130B8003528272887010F3085003A
:0200AC0008004A
:1000AE0083120313A00105302002031870280330B9
:1000BE00FB000830FC007730FD00FD0B6428FC0BC4
:1000CE006428FB0B6428061C6E281E207028A00ACC
:0400DE005A28080094
:1000E20083120313B9011730390203188C28390817
:1000F200213E840000088800133039020318832847
:100102008716071413303902031C89288712071631
:080112005720B90A7428080007
:0E011A00831203133B088A003A088200080093
:1001280083120313B9010F3039020318B5280830B8
:100138003907F000F1010318F10A7008213E840024
:1001480000088800033039020318AC288714871583
:1001580003303902031CB228871007155720B90A43
:0401680097280800CC
:10016C00712007100712871294208711071187102E
:02017C00080079
:10017E008D208A110A128000840ABA0A0319BB0A5A
:08018E00F003031DBF28080067
:1001960083120313A0012330A1002230A2002130D4
:1001A600A3002030A4001930A5001830A60017308F
:1001B600A7001630A8001530A9001430AA00133085
:1001C600AB001230AC001130AD001030AE0009307B
:1001D600AF000830B0000730B1000630B20005307D
:1001E600B3000430B4000330B5000230B60001306D
:1001F600B7000130B80001309F00831687018312D3
:1002060087018316880183128801831685010F30C2
:1002160083128500023083168600B6201029122923
:02400E004A2F37
:00000001FF
